:020000040800F2
:1000000070040020A101000893130008D712000813
:100010009113000861070008551500080000000052
:10002000000000000000000000000000A91400080B
:10003000630700080000000095130008AB140008D7
:10004000BB010008BB010008BB010008BB010008A0
:10005000BB010008BB010008BB010008BB01000890
:10006000BB010008BB010008BB010008BB01000880
:10007000BB010008BB010008BB010008BB01000870
:10008000BB010008BB010008BB010008BB01000860
:10009000BB010008BB010008BB010008BB01000850
:1000A000BB010008BB010008BB010008BB01000840
:1000B000BB010008BB010008BB010008BB01000830
:1000C000BB010008BB010008BB010008BB01000820
:1000D000BB010008BB010008BB010008BB01000810
:1000E000BB010008BB010008BB010008BB01000800
:1000F000BB010008BB010008BB010008BB010008F0
:10010000BB010008BB010008BB010008BB010008DF
:10011000BB010008BB010008BB010008BB010008CF
:10012000BB010008BB010008BB010008BB010008BF
:10013000BB010008BB010008BB010008BB010008AF
:10014000BB010008BB010008BB010008BB0100089F
:10015000BB010008BB010008BB010008BB0100088F
:10016000BB010008BB010008BB010008BB0100087F
:10017000BB010008BB010008BB0100080000000033
:10018000BB010008BB010008DFF810D000F0C2F985
:100190000048004795150008AFF300807004002068
:1001A0000648804706480047FEE7FEE7FEE7FEE711
:1001B000FEE7FEE7FEE7FEE7FEE7FEE7451500087F
:1001C000890100082DE9F05F0546002092469B4614
:1001D00088460646814640241BE02846414647465D
:1001E000224600F0F3F853465A46C01A914110D304
:1001F00011461846224600F0DAF82D1A67EB01087E
:100200004F4622460120002100F0D1F817EB0009EB
:100210004E41201EA4F10104DFDC484631462A4647
:100220004346BDE8F09FD2B201E000F8012B491E21
:10023000FBD270470022F6E710B513460A46044683
:100240001946FFF7F0FF204610BD2DE9FE4F81EA69
:10025000030404F0004421F0004100944FF0000B2F
:1002600023F0004350EA01045ED052EA03045BD05D
:10027000C3F30A54C1F30A552C44A4F2F334019495
:10028000A0FB0254C1F3130141F48011C3F3130323
:1002900043F4801301FB024400FB034E840A970AD7
:1002A00044EA815447EA8357A4FB076802958D0A04
:1002B00005FB07854FEA932C04FB0C542705029D90
:1002C0004FEA065847EA1637B5EB08056EEB070C00
:1002D000870E920E47EA811742EA8312A7FB0201BA
:1002E000B6EB0B0164EB00042B0D43EA0C335E18F4
:1002F00044EB1C50DA465146E7FB0201C5F31304F8
:100300004FEA0B3343EA14534FEA0432019C43EAA9
:100310000603A4F10C040294009CCDE900B400F0A3
:10032000ABF803B0BDE8F08F00200146F9E70EB549
:10033000C10F80EAE0700844CA07002140F233434D
:100340008DE80E000A460B4600F096F803B000BD9B
:1003500000F0004230F000400AD0C10D01F560719C
:10036000C0F3160042EA0151C2084007114370472A
:1003700000200146704701F0004330B421F00041F5
:1003800050EA010206D00A0DA2F56072C1F3130112
:10039000002A02DC30BC00207047440F44EAC1044C
:1003A000C100E01830BC00EBC25000F01FB8202A9A
:1003B00004DB203A00FA02F1002070479140C2F1BC
:1003C000200320FA03F3194390407047202A04DBEE
:1003D000203A21FA02F00021704721FA02F3D040BE
:1003E000C2F1200291400843194670470029A8BF76
:1003F0007047401C490008BF20F00100704710B44E
:10040000B0FA80FC00FA0CF050EA010404BF10BC02
:10041000704749B1CCF1200421FA04F411FA0CF12F
:1004200018BF012121430843A3EB0C01CB1D4FEA68
:1004300000614FEA102042BF002010BC704700EB63
:10044000C35010440029A4BF10BC7047401C490091
:1004500008BF20F0010010BC704710B5141E73F1E6
:10046000000408DA401C41F1000192185B411A4374
:1004700001D120F0010010BD2DE9F04D92469B46C0
:1004800011B1B1FA81F202E0B0FA80F22032904666
:10049000FFF78DFF04460F4640EA0A0041EA0B01D0
:1004A00053465A46084313D0114653EA010019D067
:1004B000C8F140025046FFF789FF05460E465046F8
:1004C00059464246FFF773FF084305D0012004E078
:1004D00020463946BDE8F08D0020054346EAE07627
:1004E0002C4337430A986305E40AA0EB0800002276
:1004F000FD0A44EA47540A3002D500200146E9E7E4
:10050000010510196941DDE9084500196941BDE897
:10051000F04DA2E7064C074D06E0E06840F001030D
:1005200094E8070098471034AC42F6D3FFF730FE4A
:10053000041600082416000810B50446802268211D
:1005400000F0E0F880226921204600F0DBF84FF44B
:10055000C87000F009F903225C21204600F0D2F8AF
:1005600000225D21204600F0CDF8032264212046C0
:1005700000F0C8F820460022BDE81040652100F0D8
:10058000C1B8000010B504462DED028B82B00223E5
:100590006A46102100F08EF80098FFF7C8FE9FED24
:1005A000158B53EC182BFFF750FEC4E9080102230A
:1005B0006A461421204600F07DF80098FFF7B7FE48
:1005C00053EC182BFFF741FEC4E90A0102236A46E7
:1005D0001821204600F06EF80098FFF7A8FE53ECB3
:1005E000182BFFF732FEC4E90C0102B0BDEC028B00
:1005F00010BD00007B14AE47E17A543E10B50446AE
:100600002DED028B82B002236A46042100F052F8DD
:100610009DED000A9FED198AF8EEC00A80EE880A67
:1006200010EE100AFFF794FEC4E9120102236A4695
:100630000821204600F03EF89DED000AF8EEC00AC1
:1006400080EE880A10EE100AFFF782FEC4E914015A
:1006500002236A460C21204600F02CF89DED000A8A
:10066000F8EEC00A80EE880A10EE100AFFF770FE5E
:10067000C4E9160102B0BDEC028B10BD0000204998
:1006800038B5044601236A461C2100F013F8684679
:1006900000B2FFF74CFE9FED051B53EC112BFFF74B
:1006A000D4FDFFF768FE206638BD00009A9999993D
:1006B0009999B93F2DE9F0470F461D4616468146E8
:1006C000090200F029F801244FF6FF780DE000BF81
:1006D00007EB440108EA0121484600F01DF806EB4B
:1006E0004401641C21F8020CE4B2AC42F0D30021B6
:1006F000484600F011F806EB450121F8020C0020F5
:10070000BDE8F08710B541F0800142EA012100F018
:1007100003F8002010BD000013B50446018982B023
:100720004068002200F028F94FF6FF700090012386
:1007300001AA03A9206800F0C9FC0849087000B1AB
:10074000FEE721890122606800F016F9962000F08A
:100750004BFFBDF8040004B010BD000000000020F5
:10076000FEE7704772B6FEE770B5044600F00AF97E
:100770000546601C02D004480078044400F002F9E9
:10078000401BA042FAD370BD040000202DE9F84FB1
:10079000DFF8B8A1002201250AF1040B03264FF06F
:1007A0000F090BF1040E00BF0B6805FA02F4234099
:1007B000A3426FD10F7907F00307012F01D0022F59
:1007C00016D187684FEA420806FA08FC27EA0C07A8
:1007D000D1F80CC00CFA08FC4CEA070CC0F808C0B1
:1007E0004768A7430C79C4F3001494403C43446029
:1007F0000C79E443A4070AD0C4684FEA420C06FA15
:100800000CF7BC438F6807FA0CF72743C7600C79D5
:1008100004F00304022C12D1D40800EB840CDCF8A1
:1008200020405707FF0E09FA07F824EA0804D1F818
:10083000108008FA07F848EA0408CCF82080046819
:100840004FEA420C06FA0CF7BC430F7907F0030796
:1008500007FA0CF7274307604C68E40070D53C4C5E
:10086000276847F480472760246822F0030704F4D0
:1008700080440094374C07EB040CDCF808489707D9
:100880004FEA177809FA08F7BC43334FB84202D150
:10089000002724E054E0314FB84201D101271EE087
:1008A0002F4FB84201D1022719E02E4FB84201D193
:1008B000032714E02C4FB84201D104270FE02B4F3F
:1008C000B84201D105270AE0294FB84201D10627D5
:1008D00005E0284FB84201D1072700E0082707FAB2
:1008E00008F72743CCF80878DAF800405746D1F8E3
:1008F00004C09C435FEACC3C00D51C433C60DBF861
:1009000000405F46D1F804C09C435FEA8C3C00D5B0
:100910001C433C60DEF800407746D1F804C09C439D
:100920005FEACC2C00D51C433C60084F0C373C6878
:10093000D1F804C09C435FEA8C2C00D51C433C607A
:10094000521C102AFFF430AFBDE8F88F003C014084
:1009500044380240003001400000024000040240E0
:1009600000080240000C0240001002400014024047
:1009700000180240001C02400AB18161704709045E
:10098000FBE7000001488068704700000400002079
:100990000248816802781144816070470400002099
:1009A0000B4810B5016841F400710160016841F421
:1009B00080610160016841F480710160032000F0F2
:1009C00061F8002000F006F800F024F8002010BDC7
:1009D000003C024070B50D4D04464FF47A71287802
:1009E000B1FBF0F00A490968B1FBF0F000F05FFCE0
:1009F00048B9102C07D200222146501E00F022F8E0
:100A000000206C6070BD012070BD0000040000205B
:100A1000100000200A4808B5016841F480410160D7
:100A2000006800F4804000900548001F016841F014
:100A300080510160006800F08050009008BD000007
:100A400044380240F0B40E4B1B680C46C3F302233B
:100A5000C3F10705042D00D90425191D072901D26A
:100A6000002300E0DB1E012606FA05F1491E2140A5
:100A700099409E40761E16403143F0BC00F06BBD9D
:100A80000CED00E0064900F0070208684FF6FF038E
:100A9000184040EA0220034A1043086070470000F3
:100AA0000CED00E00000FA052DE9F0470E460500C8
:100AB00065D0DFF81481D8F80000F7B200F0070025
:100AC000B04207D288F80070D8F8000000F00700A4
:100AD000B04254D128683D4C810712D5400703D558
:100AE000206840F4E05020602878000703D5206893
:100AF00040F4604020602068A96820F0F0000843BE
:100B000020602878C0072DD030496868083901284E
:100B100012D0022813D0032811D0096889070029B0
:100B20002DDA216821F0030101432160FFF72AFF3C
:100B3000814641F2883A0EE009688903EFE70968C7
:100B40008901ECE7FFF71EFFA0EB0901514502D92F
:100B50000320BDE8F0872068696800F00C00B0EB66
:100B6000810FEFD1D8F80010404601F00701B142E3
:100B700007D90770006800F00700B04201D00120DB
:100B8000E7E72878400705D52068E96820F4E050B9
:100B9000084320602878000706D52068296920F4DA
:100BA000604040EAC100206000F018F82168084A5F
:100BB000C1F30311515CC84006490860064800684B
:100BC000FFF708FF0020C4E7003C0240083802405D
:100BD000F41500081000002008000020154810B58A
:100BE000006810F00C02144813D04110042A0FD0F2
:100BF000082A0ED10F4C241F2268236802F03F02FE
:100C00005B0207D52068C0F38810A0FB010106E055
:100C1000084610BD2168C1F38811A1FB0001002323
:100C2000FFF7D0FA2168C1F30141491C4900B0FB2C
:100C3000F1F010BD083802400024F4002DE9F84F0F
:100C400004006ED02078DFF84C93C007A9F10405AA
:100C50004AD009F104000168C1F38101012908D0DB
:100C60000068C0F3810002280AD1D9F800004002D0
:100C700006D52868800337D560680028E1D033E0C6
:100C80006068B0F5803F10D0B0F5A02F286810D074
:100C900020F480302860286820F480202860606874
:100CA000A8B1FFF76FFE06460DE0286840F48030DB
:100CB000F4E740F480202860F7E700BFFFF762FE0A
:100CC000801B642873D828688003F7D50CE0FFF7F1
:100CD00059FE064605E000BFFFF754FE801B64285E
:100CE000F0D828688003F7D42078DFF8AC8280073A
:100CF0004FF0000A3ED5A748001D016811F00C0F07
:100D000008D00068C0F3810002280BD1D9F8000098
:100D1000400207D42868800716D5E068012800D172
:100D200012E033E1E068B8B10120C8F80000FFF735
:100D300029FE064605E000BFFFF724FE801B0228BF
:100D4000C0D828688007F7D52868216920F0F80006
:100D500040EAC10028600DE0C8F800A0FFF712FECD
:100D6000064604E0FFF70EFE801B02281FD8286805
:100D70008007F7D42078000722D5864F874861691D
:100D8000703771B101210160FFF7FCFD064604E0F8
:100D9000FFF7F8FD801B022809D838688007F7D5CF
:100DA0000EE0C0F800A0FFF7EDFD064605E082E08A
:100DB000FFF7E8FD801B02287DD838688007F7D44C
:100DC0002078400768D5DFF8CCB100270BF13C0B49
:100DD000DBF80000C0000BD4DBF8001041F08051BC
:100DE000CBF80010DBF80000012700F080500090E5
:100DF0006B4E3068C00510D4306840F480703060AD
:100E0000FFF7C0FD009005E0FFF7BCFD0099401A18
:100E1000022850D83068C005F6D55E4EA0686C3602
:100E200001280FD00528306810D020F00100306074
:100E3000306820F004003060A068B8B1FFF7A2FD70
:100E400000900FE0306840F00100F4E740F004004B
:100E50003060F7E7FFF796FD0099411A41F28830BC
:100E6000814266D830688007F4D50EE0FFF78AFD2E
:100E7000009007E0FFF786FD0099411A41F28830A3
:100E8000814256D830688007F4D42FB1DBF80010C7
:100E900021F08051CBF80010A069C8B33D49091D6D
:100EA0000968C1F3810102294AD00228504607D0BF
:100EB000C8F8600000E03CE0FFF764FD04463BE05A
:100EC0004746C8F86000FFF75DFD064605E000BF35
:100ED000FFF758FD801B02282BD828688001F7D423
:100EE000D4E907010843A16A2E4A490802EB0141EF
:100EF000626A41EA8211084394F82C1040EA0161C9
:100F0000C9F8001001203866FFF73CFD044606E0F2
:100F10003EE000BFFFF736FD001B022809D8286815
:100F20008001F7D534E000BFFFF72CFD001B02283D
:100F300002D90320BDE8F88F28688001F4D427E0A7
:100F40000128F7D0D9F80000E26900F4800191424D
:100F50001CD1226A00F03F01914217D147F6C071BF
:100F6000626A0140B1EB821F10D1A26A4FF0FF33D9
:100F700000F4403103EB5202B1EB024F06D194F87A
:100F80002C1000F07060B0EB016F01D00120D1E7B0
:100F90000020CFE70438024000004742800E47425D
:100FA000007000400000FFFF70B5040009D0606AC7
:100FB000002540B125616561A56294F8510040B1FA
:100FC0000CE0012070BD6068B0F5827FF4D0E5616F
:100FD000F2E784F85050204600F044F8022084F8EC
:100FE00051002068016821F040010160A08821893A
:100FF00000F4827001F404410843A18901F4006106
:101000000843217C01F002010843217D01F0010128
:101010000843218B01F400710843217F01F038015E
:10102000084394F8201001F080010843218D01F459
:101030000051084321680860A069042101EA1040BA
:1010400094F8241001F010010843216848602068DA
:10105000C16921F40061C1616565012084F8510016
:10106000002070BD10B586B0044614216846FFF715
:10107000E1F813492068884220D112480021026813
:1010800042F480520260006800F4805005900D48E0
:101090001438026842F001020260006800F00100AA
:1010A0000590E02000900220CDE90101032003908B
:1010B0000520049069460448FFF768FB06B010BDA0
:1010C0000030014044380240000002402DE9F84F52
:1010D000044690F8500000270A9E1D4692468B4613
:1010E0004FF0010901280ED0012084F85000FFF7CD
:1010F00049FC804694F85100616801280CD0B1F594
:10110000827F07D102E00220BDE8F88FA16809B90B
:10111000042801D00227C2E0BBF1000F27D0BAF1AA
:10112000000F24D01DB394F85100042802D00520EC
:1011300084F8510000206065C4F838A0E587A587D1
:10114000C4F830B0E586A586206460642068016834
:10115000490603D4016841F040010160E068B0F540
:10116000006F606805D0E8B3012D46D07FE001270D
:1011700095E008B1012D39D1206B21680088C86045
:10118000206B801C2063E08E401EE0862EE02068ED
:10119000816889070FD5E18E69B1B9F1010F0AD1D4
:1011A000216B0988C160206B801C2063E08E401E8B
:1011B000E0864FF0000920688168C9070CD0E18FF4
:1011C00051B1C068A16B0880A06B801CA063E08F48
:1011D000401EE0874FF00109FFF7D4FBA0EB0800A9
:1011E000B04200E009E001D3701C50D1E08E00282D
:1011F000CDD1E08F0028CAD13FE0206B2168007874
:101200000873206B401C2063E08E401EE0862EE0B9
:101210002068816889070FD5E18E69B1B9F1010FA6
:101220000AD1216B09780173206B401C2063E08E8A
:10123000401EE0864FF0000920688168C9070CD085
:10124000E18F51B1C068A16B0870A06B401CA06316
:10125000E08F401EE0874FF00109FFF793FBA0EB02
:101260000800B04202D3701C01D010E07EB1E08EC5
:101270000028CDD1E08F0028CAD142463146204611
:1012800000F08AF828B101272020606507E00327D5
:1012900005E0A06818B92068C16880680090012046
:1012A00084F85100002084F8500038462CE710B52F
:1012B000401EB0F1807F01D3012010BD4FF0E0242B
:1012C00060610F21601700F046F90020A06107203F
:1012D0002061002010BDFEE730B587B014216846BC
:1012E000FEF7A8FF15480024016841F004010160E1
:1012F000016801F004010591016841F0800101607D
:10130000016801F080010591016841F0010101606F
:1013100000680B4D00F001000590002210212846C6
:10132000FFF72AFB102000900120CDE90104694657
:1013300028460394FFF72AFA07B030BD3038024040
:1013400000000240114810B50F4901604FF482714E
:10135000416000214FF40062C0E9021202220261E2
:1013600001224261520282613022C0E907214162BA
:1013700081620A21C162FFF717FE002803D0BDE891
:101380001040FFF7EFB910BD0030014014000020FD
:10139000FEE7FEE77047000038B504461248134BDD
:1013A0000068B0FBF3F04FF47A7358430090606824
:1013B000B0F5827F0DD10B4600920022802120469D
:1013C00000F016F870B1606D40F0200060650320F9
:1013D00038BD009830B1401E009020688068C0433E
:1013E0000006F6D5002038BD1000002000366E0142
:1013F0002DE9F8431E46914688460446089DFFF7AE
:10140000C1FA401B351AFFF7BDFA074625480068A8
:10141000C0F3CB30684338E0701C37D0FFF7B2FA26
:10142000C01BA84203D215B1009860B32CE020681D
:10143000416821F0E00141606068B0F5827F0BD126
:10144000A068B0F5004F02D0B0F5806F04D12068DD
:10145000016821F040010160A06AB0F5005F09D188
:101460002068016821F4005101602068016841F49E
:1014700000510160012084F85100002084F85000E0
:101480000320BDE8F8830025401E00902068816895
:1014900038EA010004D000214945BDD10020F0E721
:1014A0000121F9E7100000207047FFF771BA000032
:1014B00030B593B030216846FEF7BCFE14210CA86D
:1014C000FEF7B8FE1D480025016841F0805101601B
:1014D000006800F0805011901948016841F4804183
:1014E00001600068022400F4804011900120009007
:1014F000000401908001CDE9064008AA0420A02143
:1015000082E813000B906846FFF798FB08B172B6AB
:10151000FEE70CA90F2081E831004FF4A0500F9096
:101520004FF48050109005210CA8FFF7BDFA002859
:1015300001D072B6FEE713B030BD00004038024063
:10154000007000400248016841F47001016070477A
:1015500088ED00E0FEE70907090E002804DB00F132
:10156000E02080F80014704700F00F0000F1E02048
:1015700080F8141D704702E008C8121F08C1002A35
:10158000FAD170477047002001E001C1121F002A04
:10159000FBD170479AB0FFF703FAFFF789FFFFF717
:1015A0009BFEFFF7CFFEC820FFF7DEF80C48019046
:1015B0001020ADF808000B4800906846FEF7BCFF0D
:1015C0004FF4FA746846FEF7DDFF6846FFF716F839
:1015D0006846FFF755F82046FFF7C6F8F2E7000027
:1015E000000002401400002001B50098411E009147
:1015F000FBD208BD0000000000000000010203044F
:101600000607080924160008000000201400000046
:101610007615000838160008140000205C0400004D
:10162000861500080000006801000000100000009E
:08163000000000000024F4009A
:040000050800018965
:00000001FF
